:100000000C9485000C94A4000C94A4000C94A400FF
:100010000C94A4000C94A4000C94A4000C94A400D0
:100020000C94A4000C94A4000C94BA040C94A400A6
:100030000C94A4000C94A4000C94A4000C94A400B0
:100040000C94A4000C94A4000C94A4000C94A400A0
:100050000C9448010C94A4000C94A4000C94A400EB
:100060000C94ED020C94A4000C94A4000C94A40035
:100070000C94A4000C94A4000C94A4000C94A40070
:100080000C94A4000C94A4000C94A4000C94A40060
:100090000C94A4000C94A4000600FF0901A10185A2
:1000A000010901150026FF0075089501B1008502C0
:1000B0000901150026FF0075089514B100850A098D
:1000C00001150026FF0075089520B100850B090178
:1000D000150026FF0075089520B100850C09011553
:1000E0000026FF0075089520B100850D0901150057
:1000F00026FF0075089520B100851E090115002610
:10010000FF00750895019100C00011241FBECFEFBC
:10011000D0E2DEBFCDBF12E0A0E0B1E0ECE0F7E15D
:1001200000E00BBF02C007900D92AC36B107D9F7C3
:1001300014E0ACE6B2E001C01D92A939B107E1F7C5
:100140000E9422040C94840B0C9455028091E800C8
:10015000877F8093E800E8EFF2E081918093F100DF
:1001600083E0EC30F807C9F78091E8008E7F809338
:10017000E8008091E80082FFFCCF8091E8008B7F4F
:100180008093E8008091E8008F778093E80081E019
:100190000895E82FF0E085E0EE0FFF1F8A95E1F764
:1001A000E45FFC4F8091E800877F8093E80090E255
:1001B00081918093F1009150D9F78091E8008E7F72
:1001C0008093E8008091E80082FFFCCF8091E800F6
:1001D0008B7F8093E8008091E8008F778093E80020
:1001E00081E0089580917E02882361F484E690E0A6
:1001F000A0E0B0E08093700290937102A09372022D
:10020000B0937302089528980895289A08959093BA
:100210008D0380938C0381E080936F0228988091F6
:100220008D038EBD089580919103803299F08031C5
:1002300031F41092900310928F0310929103109258
:100240008D0310928C0381E080936F022898809137
:100250008D038EBD08959FB7F89480918E03E82F8B
:10026000F0E0EE0FFF1FEB56FE4F208131813093FF
:10027000800220937F028F5F80938E0330938900EA
:1002800020938800843011F410928E039FBF08954C
:100290001F920F920FB60F920BB60F9211242F934D
:1002A0003F934F935F936F937F938F939F93AF93FE
:1002B000BF93EF93FF9320917F023091800240E043
:1002C00050E08091780290917902A0917A02B091E9
:1002D0007B02820F931FA41FB51F80937802909317
:1002E0007902A0937A02B0937B020E942B010E94B4
:1002F0001301FF91EF91BF91AF919F918F917F91EA
:100300006F915F914F913F912F910F900BBE0F9086
:100310000FBE0F901F9018950E942B0181E08093D3
:100320006F0083E0809380008CE1809381000E94C5
:100330002B0108951F93E4E6F0E080818B7F80839A
:1003400080ED8CBD11E01DBD80E091E00E94020AAD
:1003500080E28093910380E090EA90938D038093F4
:100360008C0310936F02289880918D038EBD1F918E
:100370000895AF92BF92CF92DF92EF92FF920F93C8
:100380001F93CF93DF93EC01409181025091820241
:100390004F5F5F4F50938202409381027FB7F89482
:1003A000E0907802F090790200917A0210917B023D
:1003B00080919F018F3F39F019827FBF86E091E0E5
:1003C0000E94020A38C0662321F481E080936C0207
:1003D00002C010926C0280916C0290E02AE330E03F
:1003E000829FF001839FF00D929FF00D1124ED5735
:1003F000FD4F11827FBF8091740290917502A09190
:100400007602B091770257016801A81AB90ACA0AA0
:10041000DB0AAC82BD82CE82DF82E0927402F0926F
:10042000750200937602109377025B834A838FEF05
:1004300088836093A001DF91CF911F910F91FF906E
:10044000EF90DF90CF90BF90AF900895DC011196B0
:100450008C911197E82FF0E03496EE0FFF1FEA0F12
:10046000FB1F518340838F5F11968C9311978931C5
:1004700019F4CD010E94B9010895AC0180916C027C
:10048000882321F483E892E060E003C08DEB92E0E2
:1004900061E00E94260208958DE091E00E94020A28
:1004A000109A81E08093F70208951F920F920FB681
:1004B0000F920BB60F9211242F933F934F935F939C
:1004C0006F937F938F939F93AF93BF93EF93FF931C
:1004D00084E191E00E94020AFF91EF91BF91AF91F8
:1004E0009F918F917F916F915F914F913F912F914C
:1004F0000F900BBE0F900FBE0F901F9018950F938B
:100500001F93DF93CF9300D0CDB7DEB74091910317
:10051000403129F489E191E00E94020A57C040323B
:10052000E9F480E18093910382E291E00E94020A63
:1005300088E00E94470A80E00E94470A0E94280A39
:1005400080E098EA90938D0380938C0381E0809300
:100550006F02289880918D038EBD38C0442399F195
:1005600020917C0230917D0254E0369527955A9572
:10057000E1F780918F0390919003280F391F3093FA
:10058000900320938F034830F1F4890143E01695DE
:1005900007954A95E1F71A83098385E291E00E9465
:1005A000020A8A810E94470A89810E94470A0E94A2
:1005B000280A1092900310928F0310929103C801A1
:1005C0000E943D0203C04F5F409391030F900F9034
:1005D000CF91DF911F910F9108951F920F920FB647
:1005E0000F920BB60F9211242F933F934F935F936B
:1005F0006F937F938F939F93AF93BF93EF93FF93EB
:100600009EB580916F02813041F490937D0280917C
:100610008C038EBD10926F0205C090937C02289AC5
:100620000E947F02FF91EF91BF91AF919F918F91B7
:100630007F916F915F914F913F912F910F900BBEE2
:100640000F900FBE0F901F9018951F93CF93DF93BD
:100650002FB7F8949091A0019F3F31F42FBF89E20A
:1006600091E00E94020A37C090939F018FEF809320
:10067000A0012FBF8AE3989FE0011124CD57DD4FE1
:100680001981110F185FFE0190E004C081918093E1
:10069000F1009F5F9117D0F303C01092F1001F5F2C
:1006A0001034D8F38091E8008E7F8093E800809129
:1006B000E8008F778093E8008EE291E00E94020AC2
:1006C000812F0E94470A8A810E94470A0E94280AB5
:1006D0008FEF80939F01DF91CF911F9108958091BB
:1006E0009503882369F081E08093E9008091E80018
:1006F00085FF06C080916D02882311F40E942503B6
:100700000895EF92FF920F931F93182F062FF42E48
:10071000E52E82E391E00E94020A812F0E94470A9F
:10072000802F0E94470A8F2D0E94470A0E94280AA4
:10073000133071F4802F8A50843018F40E94C9005D
:1007400008C0023029F48F2D9E2D0E94A60001C002
:1007500080E01F910F91FF90EF90089581E08093CA
:10076000F70280E090E060E00E946B0681E00E946A
:10077000840681E00895EF92FF920F931F93182F44
:10078000062FF42EE52E8DE391E00E94020A812FC0
:100790000E94470A802F0E94470A8F2D0E94470A15
:1007A0000E94280A0E3111F080E004C08F2D9E2D8A
:1007B0000E94AE031F910F91FF90EF9008951F9339
:1007C0008091F7028823E1F11092F7020E94C30A98
:1007D00080EA9FE00197F1F711E01093F802109280
:1007E000F9021092FA028BE093E00E94430B8823F7
:1007F00019F488E491E022C08BEF92E00E94070B8D
:10080000882319F484E591E019C083E093E00E9405
:10081000250B882319F480E691E010C08CE093E06A
:1008200060E80E94570B882319F48CE691E006C01B
:100830001093F9021093FA0288E791E00E94020AED
:100840001F9108951F9304B603FE0AC0A89587EF71
:1008500084BF809160008861809360001092600086
:1008600080E88093610010926100109270021092F3
:100870007102109272021092730283E081B982E0D9
:1008800082B98FE187B980E188B981E085B987E0D5
:1008900084B90E94BF090E947F0483E891E00E940E
:1008A000020A11E080917E02882319F00E94DF0382
:1008B0001FC08091700290917102A0917202B0915C
:1008C00073020097A105B10599F00197A109B1093B
:1008D0008093700290937102A0937202B09373029E
:1008E0000097A105B10521F410937E020E944C02ED
:1008F0000E9493050E946F030E94CB09D3CF81E031
:100900008093E000E7EDF0E080818160808380816A
:100910008F7B8083808180688083F894E8EDF0E0AD
:1009200080818F76808380818069808380818F7BC6
:100930008083808181608083789408958EE089BD72
:1009400009B400FEFDCF8091D8008F7D8093D80040
:100950008091E20081608093E2008091E2008860F3
:100960008093E2000E9425098091E0008E7F8093B1
:10097000E00008951F920F920FB60F920BB60F92E0
:1009800011242F933F934F935F936F937F938F9394
:100990009F93AF93BF93EF93FF938091DA0080FF13
:1009A0002FC08091D80080FF2BC08EEF8093DA009B
:1009B0008091D90080FF19C081E0809392038091DB
:1009C0009303909194038260909394038093930394
:1009D0008091E20088608093E2000E949E048091F2
:1009E000E0008E7F8093E0000BC010929203809114
:1009F0009303909194038460909394038093930362
:100A00008091E10082FF09C08091E20082FF05C071
:100A10008BEF8093E10082E088B98091E10080FF54
:100A20001FC08091E20080FF1BC08EEF8093E10029
:100A30008091E20080618093E2008FEE8093E1007C
:100A40008091D80080628093D80080919303909128
:100A500094038062909394038093930381E088B918
:100A60008091E10084FF1AC08091E20084FF16C0EB
:100A70008091D8008F7D8093D8008FEE8093E10025
:100A80008091E2008F7E8093E200809193039091A9
:100A90009403806490939403809393038091E10086
:100AA00085FF1AC08091E20085FF16C08091E200A8
:100AB0008F7E8093E2008FED8093E1008091E200D1
:100AC0008F7D8093E20080919303909194038068DE
:100AD00090939403809393038091E10083FF10C06F
:100AE0008091E20083FF0CC087EF8093E10080914A
:100AF0009303909194039160909394038093930354
:100B0000FF91EF91BF91AF919F918F917F916F91E5
:100B10005F914F913F912F910F900BBE0F900FBEA1
:100B20000F901F9018958091D90080FF09C0809187
:100B30009203882329F481E0809392030E949E040B
:100B4000809193039091940390FF20C08091930330
:100B5000909194039E7F909394038093930381E0FC
:100B60008093EA001092EA008091D8008F7B8093F6
:100B7000D8001092E9008091EB0080FD0FC0109228
:100B8000E90082E060E30E94D90808951092E9002C
:100B90008091E80083FF02C00E94520808958130CE
:100BA00049F18230E1F58091F1009091F1008823C4
:100BB00061F5E091F100EF77E9F0E093E9008091D1
:100BC000EB0080FF15C08091EB0080628093EB000A
:100BD0001092E900F0E0E259FD4F81E080838091BE
:100BE000E800877F8093E8008091E8008E7F0AC04C
:100BF0001092E9008091EB0080628093EB0080917D
:100C0000E800877F8093E80008958091EB00806280
:100C10008093EB008091E800877F8093E80008953F
:100C20009091F1009091F100E091F100813821F074
:100C3000823851F08038B1F48091E800877F80934A
:100C4000E8001092F10017C08091E800877F809340
:100C5000E800F0E0EF77F070E259FD4F808180937B
:100C6000F10009C08091EB0080628093EB008091DD
:100C7000E800877F13C01092F1008091E8008E7F1A
:100C80008093E8008091E80082FFFCCF8091E8002B
:100C90008B7F8093E8008091E8008F778093E80055
:100CA0000895EBEEF0E0808180628083E8EEF0E072
:100CB0008081877F808308958091E800877F80937B
:100CC000E8008091E8008E7F8093E8008091E80042
:100CD00080FFFCCF08959C018091E800877F80937E
:100CE000E8008091E8008E7F8093E8008091E80022
:100CF00082FFFCCFF90104C08091F1008193615023
:100D00006623D1F781E00895882329F48091EB00D0
:100D100080628093EB008091E8008B7F8093E800F5
:100D20008091E8008F778093E8008091E8008E7FC3
:100D30008093E8008091E80080FFFCCF0895FF9247
:100D40000F931F93DF93CF93CDB7DEB727970FB6DF
:100D5000F894DEBF0FBECDBFF82E0091F1001091C8
:100D6000F100802F0E94470A812F0E94470A80E8E5
:100D7000F816E1F5113019F0123079F407C083EB61
:100D800091E09F838E8322E130E046C085EC91E0C4
:100D90009F838E8329E230E03FC0133009F09EC06C
:100DA000013079F0013030F0023091F0033009F079
:100DB00095C015C088E692E09F838E8324E030E0E2
:100DC0002BC08EEE91E09F838E832AE130E024C019
:100DD00088E092E09F838E8324E430E01DC08CE4A1
:100DE00092E09F838E832CE130E016C081E8F816F4
:100DF00009F074C0113251F0123209F06FC088E965
:100E000090E09F838E8321E730E006C087ED91E07C
:100E10009F838E8329E030E08091F1008091F10082
:100E20008091F10089838091F1008A838091E800AC
:100E3000877F8093E80049815A812417350730F471
:100E4000C9018F739070892B19F4A90191E002C038
:100E5000A90190E0AE81BF8120E030E01CC080910C
:100E6000E80080FFFCCFFD01E20FF31FB901605CD9
:100E70007F4F04C031962617370741F08491809345
:100E8000F1002F5F3F4F41505040A1F78091E800A3
:100E90008E7F8093E8004115510521F08091E80094
:100EA00082FFDDCF8091E80082FD0FC0913049F4D0
:100EB0008091E80080FFFCCF8091E8008E7F8093D6
:100EC000E8008091E80082FFFCCF8091E8008B7FF2
:100ED0008093E8008091E8008F7708C08091EB0054
:100EE00080628093EB008091E800877F8093E80028
:100EF00027960FB6F894DEBF0FBECDBFCF91DF911E
:100F00001F910F91FF900895882379F48091EB0051
:100F100080628093EB008091E800877F8093E800F7
:100F200081EA91E00E94020A08958130D9F182306D
:100F300009F04DC08091F1009091F1008823E9F50E
:100F4000E091F100EF77E093E9008091EB0080FF02
:100F500027C0EE23B1F08091EB0080618093EB001D
:100F600081E090E00E2E02C0880F991F0A94E2F7EC
:100F70008093EA001092EA008091EB0088608093F1
:100F8000EB001092E900F0E0E259FD4F10828091F1
:100F9000E800877F8093E8008091E8008E7F0AC098
:100FA0001092E9008091EB0080628093EB008091C9
:100FB000E800877F8093E80008958091EB008062CD
:100FC0008093EB008091E800877F8093E80008958C
:100FD0001F931091F10085EA91E00E94020A812F8F
:100FE0000E94470A8091E3001F778078182B1093A6
:100FF000E3008091E800877F8093E8008091E8001B
:101000008E7F8093E8008091E80080FFFCCF809184
:10101000E30080688093E3001F9108958091E800C9
:10102000877F8093E8008AEA91E00E94020A80911B
:1010300095038093F1008091E8008E7F8093E80013
:101040008091E8008F778093E8008091E80082FF2C
:10105000FCCF8091E8008B7F8093E8008091E800CE
:101060008F778093E800089581E08093E90081EC18
:1010700060E30E94D90808959091F100E8EEF0E055
:101080008081877F80839093950380818E7F80838A
:1010900081E08093E90081EC60E30E94D9080E941E
:1010A000F20008950F931F931091F1000091F10049
:1010B0008EEA91E00E94020A802F0E94470A812F47
:1010C0000E94470A0630D1F0073050F4013061F138
:1010D0000130B0F1033071F1053009F04EC017C096
:1010E0000930D9F00A3020F4083009F046C00AC0AF
:1010F0000A3071F10B3009F040C03AC0812F0E94D4
:101100009F0655C01038C9F50E940E0850C0112323
:10111000A1F50E94E80788E005C0112371F50E943F
:101120003C0884E088B943C0123038F5812F0E9412
:1011300084073DC0123008F5812F0E94CF0537C0CB
:10114000812F80588230C8F4812F0E9410062FC052
:10115000113859F48091EB0080628093EB0080910C
:10116000E800877F8093E80022C0113231F41FC06D
:10117000113019F40E945C061AC0812F602F0E9462
:101180007809882361F48091EB0080628093EB0002
:101190008091E800877F8093E80088E501C085E5BD
:1011A0000E94F3090E94280A1F910F91089583E578
:1011B000F7CF9091EB0091609093EB008093EC005F
:1011C0008091ED008270862B8093ED008091ED0080
:1011D00082608093ED008091EE00881F8827881F31
:1011E00008959091F40080E090FD06C08F5F8730F5
:1011F00011F09695F9CF80E00895FB018093E90006
:1012000004C081918093F10041508091E80085FFF6
:1012100002C04423B1F7842F0895FB018093E900B5
:1012200004C08091F100819341508091E80085FFD6
:1012300002C04423B1F7842F08958093E900EBEEB8
:10124000F0E080818062808308958091D8008F7B58
:101250008093D8008091D90081FF0DC01092E900E1
:101260008091EB0080FD07C01092E90082E060E30E
:101270000E94D908089580E008958091E800877F52
:101280008093E8008091E8008E7F8093E800809151
:10129000E80082FFFCCF8091E8008B7F8093E8001C
:1012A0008091E8008F778093E8008091E8008E7F3E
:1012B0008093E80081E008958091F1008091F10031
:1012C0008091F100809396038091F10080939703C1
:1012D0008091E800877F8093E8008091E8008E7F0E
:1012E0008093E8008091E80080FFFCCF81E00895C2
:1012F000DF93CF9300D000D0CDB7DEB72091F100BF
:101300009091F1003091F1003091F1004091F100A5
:101310003091F1008295869583708130D1F42983D4
:101320009A834B833C83613019F0693001F507C023
:101330004B815C81892F622F0E94810306C04B8103
:101340005C81892F622F0E94BB03882389F081E092
:101350000FC0882361F4693019F06A3041F404C089
:10136000892F0E943D0904C00E945C0901C080E0F1
:101370000F900F900F900F90CF91DF91089583E31E
:101380008093CC001092CD0088E18093C9008EE05C
:101390008093CA0008958091C80085FF19C090917C
:1013A000980380919804981799F02FB7F894E92F33
:1013B000F0E0E756FC4F808110828093CE00892FA9
:1013C0008F5F809398038F3F11F4109298032FBF83
:1013D000089502C00E94CB099091980480919803CF
:1013E0009817C1F7089590919804E92FF0E0E75617
:1013F000FC4F80839F5F909398049F3F11F410925D
:1014000098040895DC012DE09C91992301F19A3014
:1014100071F480919804E82FF0E0E756FC4F2083A8
:101420008F5F809398048F3F11F4109298048091FD
:101430009804E82FF0E0E756FC4F90838F5F80938D
:1014400098048F3F11F4109298041196DDCF0895FF
:1014500080919804E82FF0E0E756FC4F9DE09083E0
:101460008F5F809398048F3F11F4109298048091BD
:101470009804E82FF0E0E756FC4F9AE090838F5FE6
:10148000809398048F3F11F4109298040895282FA8
:1014900080919804E82FF0E0E756FC4F90E29083AB
:1014A0008F5F809398048F3F11F41092980480917D
:1014B0009804E82FF0E0E756FC4F90E390838F5FAD
:1014C000809398048F3F11F41092980480919804AF
:1014D000E82FF0E0E756FC4F98E790838F5F80930A
:1014E00098048F3F11F410929804822F82958F7088
:1014F0008A3018F0982F995A02C0982F905D8091E9
:101500009804E82FF0E0E756FC4F90838F5F8093BC
:1015100098048F3F11F410929804822F8F708A30B4
:1015200018F0982F995A02C0982F905D80919804D6
:10153000E82FF0E0E756FC4F90838F5F809398048C
:101540008F3F11F41092980480919804E82FF0E0F6
:10155000E756FC4F90E290838F5F809398048F3F13
:1015600011F41092980408953898409A0895409A7A
:10157000389A08954098389A089538984098089570
:1015800086B1817008953898409808954098389AA7
:1015900080EC93E00197F1F73898409884E890E068
:1015A0000197F1F786B1ECE3F3E03197F1F780951D
:1015B000817008954098389AE2E0F0E03197F1F7B1
:1015C000882311F038984098ECE1F0E03197F1F77A
:1015D000309B80E0EAE5F0E03197F1F738984098E9
:1015E00008950F931F93182F00E0812F81700E94A0
:1015F000DA0A1695811110680F5F0830B1F7812F54
:101600001F910F9108958FEF0E94F10A08950F9393
:101610001F93CF93DF938C010E94C60A882381F029
:1016200083EC0E94F10AC0E0D0E00E94030BF801B5
:10163000EC0FFD1F80832196C830D105B1F788E0FB
:10164000DF91CF911F910F9108950F931F93CF9327
:10165000DF938C010E94C60A882381F083E30E94F5
:10166000F10AC0E0D0E00E94030BF801EC0FFD1F6F
:1016700080832196C830D105B1F788E0DF91CF9102
:101680001F910F910895CF93DF93EC010E94C60A3A
:10169000882351F086E60E94F10A80E00E94F10A58
:1016A0000E94030B888381E0DF91CF910895FF9220
:1016B0000F931F93CF93DF93182FF92E062F0E94BD
:1016C000C60A882311F400E018C08CEC0E94F10ACD
:1016D00080EF0E94F10A80E00E94F10A80E00E94FF
:1016E000F10A812F9F2D9C01E90110E004C00E94A6
:1016F000030B89931F5F1017D0F3802FDF91CF91D9
:0C1700001F910F91FF900895F894FFCF07
:10170C00414443500A00504B4F46210A0050575257
:10171C004F4E0A005644210A0053504949444C4547
:10172C000A00415000534D50005F48696400555009
:10173C004B004765745F5265706F7274005365742B
:10174C005F5265706F7274004E4F2054454453289D
:10175C0053290A004E4F20544544532841290A006E
:10176C004E4F20544544532852290A004E4F2054C2
:10177C00454453284D290A005445445320524541B1
:10178C00440A000A737461636B5F696E69745F6409
:10179C006F6E650A001F001F001F0020000419FF58
:1017AC00FF5F345F0041444452005F315F0053548B
:1017BC004420001201000200000040071D10000030
:1017CC0010010203010902220001010080FA090440
:1017DC00000001030000000921011000012271002A
:1017EC0007058103400014000000000000001A03EC
:1017FC0053006F006C00690064002D004D006F00F9
:10180C00740069006F006E00440353006F006C009D
:10181C00690064002D004D006F00740069006F00BA
:10182C006E002000530065006E0073006F007200A4
:10183C00200049006E0074006500720066006100B3
:10184C006300650000000000000000001C03310074
:10185C002E0030002E0030002E0030002E00300004
:0C186C002E0030002E004300040309048D
:00000001FF
