:100000000C94E6000C9405010C9405010C94050178
:100010000C9405010C9405010C9405010C94050148
:100020000C9405010C9405010C94E6040C94050154
:100030000C9405010C9405010C9405010C94050128
:100040000C9405010C9405010C9405010C94050118
:100050000C942C020C9405010C9405010C940501E0
:100060000C94AB030C9405010C9405010C94050150
:100070000C9405010C9405010C9405010C940501E8
:100080000C9405010C9405010C9405010C940501D8
:100090000C9405010C9405010600FF0901A10185DE
:1000A000010901150026FF0075089501B1008502C0
:1000B0000901150026FF0075089514B100850A098D
:1000C00001150026FF0075089520B100850B090178
:1000D000150026FF0075089520B100850C09011553
:1000E0000026FF0075089520B100850D0901150057
:1000F00026FF0075089520B100850109011500262D
:10010000FF007508953F8100851E0901150026FF37
:100110000075089501910085320901150026FF0040
:10012000750895019100C01201000200000040070F
:100130001D1000001001020301090222000101004C
:1001400080FA0904000001030000000921011000E9
:1001500001228F0007058103400014000000000009
:1001600000001A0353006F006C00690064002D004A
:100170004D006F00740069006F006E00440353006F
:100180006F006C00690064002D004D006F0074006A
:1001900069006F006E0020005500530042002000EF
:1001A00053006D0061007200740020005300650070
:1001B0006E0073006F007200200041004400430095
:1001C00008033100370038000403090411241FBE5E
:1001D000CFEFD0E2DEBFCDBF11E0A0E0B1E0EEE5B1
:1001E000F8E100E00BBF02C007900D92AC36B107FA
:1001F000D9F713E0ACE6B1E001C01D92A639B10712
:10020000E1F70E9453040C942D0C0C942F03909151
:10021000E800977F9093E80092E09093F10090E0DF
:10022000282F30E02150304006C0EF50FE4F808133
:100230008093F1009F5FE92FF0E0E217F307ACF342
:100240008091E8008E7F8093E8008091E80082FF33
:10025000FCCF8091E8008B7F8093E8008091E800DC
:100260008F778093E80081E00895282F30E095E0B3
:10027000220F331F9A95E1F72B5F3D4F9091E800D5
:10028000977F9093E800865F8093F100F90170E01A
:100290006150704003C081918093F1008E2F821BCA
:1002A00090E086179707BCF38091E8008E7F8093DB
:1002B000E8008091E80082FFFCCF8091E8008B7F0E
:1002C0008093E8008091E8008F778093E80081E0D8
:1002D0000895833071F4862F8A50843020F4642F7F
:1002E0000E9435010895623021F4842F0E94070195
:1002F000089580E0089580917701882361F484E671
:1003000090E0A0E0B0E08093870290938802A093F1
:100310008902B0938A0208952FB7F89490915301FF
:100320009F3F11F42FBF0895909352018FEF809358
:1003300053012FBF8AE3989FD0011124A458BE4FC8
:1003400011962C911197220F285F30E0422F50E038
:1003500061E00BC0332311F46093F100FD01E30F62
:10036000F11D80818093F1003F5F832F90E048175B
:10037000590784F703C01092F1002F5F822F90E09D
:1003800080349105C4F38091E8008E7F8093E8006B
:100390008091E8008F778093E8008FEF809352017F
:1003A000089580919202882349F081E08093E900CA
:1003B00080916D01882311F40E948C010895289882
:1003C0000895289A0895909386028093850281E08B
:1003D00080936F012898809186028EBD0895809148
:1003E0008E02803299F0803131F410928D02109299
:1003F0008C0210928E02109286021092850281E089
:1004000080936F012898809186028EBD08959FB7D2
:10041000F89480918B02E82FF0E0EE0FFF1FE85B6D
:10042000FE4F2081318130937901209378018F5FD5
:1004300080938B023093890020938800843011F4DC
:1004400010928B029FBF08950E94070281E0809363
:100450006F000E94070208951F920F920FB60F922D
:100460000BB60F9211242F933F934F935F936F938B
:100470007F938F939F93AF93BF93EF93FF932091BD
:1004800078013091790140E050E0809171019091C4
:100490007201A0917301B0917401820F931FA41F88
:1004A000B51F8093710190937201A0937301B09373
:1004B00074010E9407020E94EF010E942402FF9132
:1004C000EF91BF91AF919F918F917F916F915F91CC
:1004D0004F913F912F910F900BBE0F900FBE0F9039
:1004E0001F9018951F9383E0809380008CE1809388
:1004F0008100E4E6F0E080818B7F808380ED8CBD1D
:1005000011E01DBD80E091E00E946C0A80E28093C2
:100510008E0280E090EA9093860280938502109389
:100520006F012898809186028EBD1F910895AF9229
:10053000BF92CF92DF92EF92FF920F931F93CF93D0
:10054000DF93EC0140917A0150917B014F5F5F4F47
:1005500050937B0140937A017FB7F894E09071014A
:10056000F090720100917301109174018091520119
:100570008F3F39F019827FBF86E091E00E946C0ABC
:1005800031C0662321F481E080936C0102C0109297
:100590006C0180916C0190E02AE330E0829FF001D1
:1005A000839FF00D929FF00D1124E458FE4F1182AD
:1005B0007FBF80917001992787FD9095A92FB92F52
:1005C00057016801A81AB90ACA0ADB0AAC82BD82BF
:1005D000CE82DF82E09270015B834A838FEF888353
:1005E00060935301DF91CF911F910F91FF90EF9096
:1005F000DF90CF90BF90AF900895DC0111968C9161
:100600001197E82FF0E03496EE0FFF1FEA0FFB1F63
:10061000518340838F5F11968C931197893119F420
:10062000CD010E9497020895AC0180916C0188234E
:1006300021F48CE791E060E003C086EB91E061E09B
:100640000E94FD0208958DE091E00E946C0A109ACC
:100650008EB18EB9769A81E08093F00108951F9251
:100660000F920FB60F920BB60F9211242F933F9358
:100670004F935F936F937F938F939F93AF93BF93AA
:10068000EF93FF9384E191E00E946C0AFF91EF9158
:10069000BF91AF919F918F917F916F915F914F919A
:1006A0003F912F910F900BBE0F900FBE0F901F9098
:1006B000189540918E02403129F489E191E00E9421
:1006C0006C0A08954032E9F480E180938E0282E260
:1006D00091E00E946C0A88E00E94B10A80E00E94CA
:1006E000B10A0E94920A80E098EA90938602809371
:1006F000850281E080936F012898809186028EBDEB
:100700000895442321F1209175013091760154E040
:10071000369527955A95E1F780918C0290918D023C
:10072000280F391F30938D0220938C02483079F4C2
:1007300010928D0210928C0210928E02C90143E039
:10074000969587954A95E1F70E94140308954F5FA7
:1007500040938E0208951F920F920FB60F920BB620
:100760000F9211242F933F934F935F936F937F9337
:100770008F939F93AF93BF93EF93FF939EB5809119
:100780006F01813041F490937601809185028EBD96
:1007900010926F0105C090937501289A0E94590329
:1007A000FF91EF91BF91AF919F918F917F916F9149
:1007B0005F914F913F912F910F900BBE0F900FBE05
:1007C0000F901F90189581E08093F00180E090E0F9
:1007D00060E00E94930681E00E94C90681E00895CE
:1007E000EF92FF920F931F93E82EF62E81E08093F5
:1007F000F00105E012E0C8010E9493061092040285
:10080000FA94C8016E2D4F2D0E94C00B80930402F4
:1008100081E01F910F91FF90EF9008956E3119F4D0
:100820000E94E3030895862F8A50843020F4642FB9
:100830000E94F0030895623311F080E008950E9451
:10084000140A08951F938091F001882351F11092AA
:10085000F0010E942D0B80EA9FE00197F1F711E073
:100860001093F1011092F2011092F3018CEF91E0DC
:100870000E94710B882319F485E291E010C085E095
:1008800092E060E80E94910B882319F481E391E0E3
:1008900006C01093F2011093F3018DE391E00E94E2
:1008A0006C0A1F9108951F9304B603FE0AC0A89511
:1008B00087EF84BF80916000886180936000109210
:1008C000600080E8809361001092610010928702BE
:1008D000109288021092890210928A0283E081B9F4
:1008E00082E082B980EC8DB9779A81E085B987E0A2
:1008F00084B90E94AB040E9472020E94240211E09B
:1009000080917701882319F00E9422041FC08091F2
:10091000870290918802A0918902B0918A02009783
:10092000A105B10599F00197A109B109809387024A
:1009300090938802A0938902B0938A020097A10540
:10094000B10521F4109377010E9423030E94BB0597
:100950000E94D101D5CF81E08093E000E7EDF0E087
:1009600080818160808380818F7B808380818068AB
:100970008083F894E8EDF0E080818F768083808139
:100980008069808380818F7B808380818160808388
:10099000789408958EE089BD09B400FEFDCF809162
:1009A000D8008F7D8093D8008091E2008160809391
:1009B000E2008091E20088608093E2000E947B095F
:1009C0008091E0008E7F8093E00008951F920F9247
:1009D0000FB60F920BB60F9211242F933F934F93A4
:1009E0005F936F937F938F939F93AF93BF93EF9397
:1009F000FF938091DA0080FF2FC08091D80080FFA4
:100A00002BC08EEF8093DA008091D90080FF19C04F
:100A100081E080938F028091900290919102826098
:100A200090939102809390028091E200886080937D
:100A3000E2000E94CA048091E0008E7F8093E00073
:100A40000BC010928F02809190029091910284606D
:100A500090939102809390028091E10082FF07C001
:100A60008091E20082FF03C08BEF8093E1008091D0
:100A7000E10080FF1DC08091E20080FF19C08EEF71
:100A80008093E1008091E20080618093E2008FEE2C
:100A90008093E1008091D80080628093D80080919B
:100AA00090029091910280629093910280939002C3
:100AB0008091E10084FF1AC08091E20084FF16C09B
:100AC0008091D8008F7D8093D8008FEE8093E100D5
:100AD0008091E2008F7E8093E2008091900290915D
:100AE0009102806490939102809390028091E10042
:100AF00085FF1AC08091E20085FF16C08091E20058
:100B00008F7E8093E2008FED8093E1008091E20080
:100B10008F7D8093E2008091900290919102806895
:100B200090939102809390028091E10083FF10C026
:100B30008091E20083FF0CC087EF8093E1008091F9
:100B40009002909191029160909391028093900213
:100B5000FF91EF91BF91AF919F918F917F916F9195
:100B60005F914F913F912F910F900BBE0F900FBE51
:100B70000F901F9018958091D90080FF09C0809137
:100B80008F02882329F481E080938F020E94CA0497
:100B9000809190029091910290FF20C080919002EC
:100BA000909191029E7F909391028093900281E0B8
:100BB0008093EA001092EA008091D8008F7B8093A6
:100BC000D8001092E9008091EB0080FD0FC01092D8
:100BD000E90082E060E30E942F0908951092E90085
:100BE0008091E80083FF02C00E949B080895813035
:100BF00049F18230E1F58091F1009091F100882374
:100C000061F5E091F100EF77E9F0E093E900809180
:100C1000EB0080FF15C08091EB0080628093EB00B9
:100C20001092E900F0E0E259FE4F81E0808380916C
:100C3000E800877F8093E8008091E8008E7F0AC0FB
:100C40001092E9008091EB0080628093EB0080912C
:100C5000E800877F8093E80008958091EB00806230
:100C60008093EB008091E800877F8093E8000895EF
:100C70009091F1009091F100E091F100813821F024
:100C8000823851F08038B1F48091E800877F8093FA
:100C9000E8001092F10017C08091E800877F8093F0
:100CA000E800F0E0EF77F070E259FE4F808180932A
:100CB000F10009C08091EB0080628093EB0080918D
:100CC000E800877F13C01092F1008091E8008E7FCA
:100CD0008093E8008091E80082FFFCCF8091E800DB
:100CE0008B7F8093E8008091E8008F778093E80005
:100CF0000895EBEEF0E0808180628083E8EEF0E022
:100D00008081877F808308958091E800877F80932A
:100D1000E8008091E8008E7F8093E8008091E800F1
:100D200080FFFCCF08959C016623A9F08091E80024
:100D3000877F8093E8008091E80082FFFCCF80915C
:100D4000F100F90190E004C08091F10081939F5F70
:100D50009617D0F30DC08091E800877F8093E8005C
:100D60008091E80082FFFCCF8091F1008091F1003A
:100D70008091E8008B7F8093E8008091E8008F7776
:100D80008093E8008091E8008E7F8093E80081E006
:100D90000895882329F48091EB0080628093EB0012
:100DA0008091E8008E7F8093E8008091E8008B7F3F
:100DB0008093E8008091E8008F778093E80080912D
:100DC000E80080FFFCCF0895882379F48091EB0040
:100DD00080628093EB008091E800877F8093E80039
:100DE00084E591E00E946C0A08958130D9F1823047
:100DF00009F04DC08091F1009091F1008823E9F550
:100E0000E091F100EF77E093E9008091EB0080FF43
:100E100027C0EE23B1F08091EB0080618093EB005E
:100E200081E090E00E2E02C0880F991F0A94E2F72D
:100E30008093EA001092EA008091EB008860809332
:100E4000EB001092E900F0E0E259FE4F1082809131
:100E5000E800877F8093E8008091E8008E7F0AC0D9
:100E60001092E9008091EB0080628093EB0080910A
:100E7000E800877F8093E80008958091EB0080620E
:100E80008093EB008091E800877F8093E8000895CD
:100E90008091E800877F8093E80088E591E00E94D8
:100EA0006C0A809192028093F1008091E8008E7F1D
:100EB0008093E8008091E8008F778093E80080912C
:100EC000E80082FFFCCF8091E8008B7F8093E800F0
:100ED0008091E8008F778093E80008951F93109128
:100EE000F1008CE591E00E946C0A812F0E94B10A0A
:100EF0008091E3001F778078182B1093E300809196
:100F0000E800877F8093E8008091E8008E7F8093DF
:100F1000E8008091E80080FFFCCF8091E3008068CA
:100F20008093E3001F910895FF920F931F93DF9327
:100F3000CF93CDB7DEB727970FB6F894DEBF0FBEBD
:100F4000CDBFF82E0091F1001091F10081E691E003
:100F50000E946C0A802F0E94B10A812F0E94B10A60
:100F600080E8F816E1F5113019F0123079F407C075
:100F700087E291E09F838E8322E130E046C089E3DF
:100F800091E09F838E8329E230E03FC0133009F067
:100F90009EC0013079F0013030F0023091F0033022
:100FA00009F095C015C088EC91E09F838E8324E002
:100FB00030E02BC082E691E09F838E832AE130E00F
:100FC00024C08CE791E09F838E8324E430E01DC031
:100FD00080EC91E09F838E8328E030E016C081E8AA
:100FE000F81609F074C0113251F0123209F06FC0D6
:100FF00088E990E09F838E832FE830E006C08BE481
:1010000091E09F838E8329E030E08091F100809110
:10101000F1008091F10089838091F1008A838091B1
:10102000E800877F8093E80049815A8124173507BB
:1010300030F4C9018F739070892B19F4A90191E0E4
:1010400002C0A90190E0AE81BF8120E030E01CC069
:101050008091E80080FFFCCFFD01E20FF31FB90192
:10106000605C7F4F04C031962617370741F08491AA
:101070008093F1002F5F3F4F41505040A1F7809186
:10108000E8008E7F8093E8004115510521F08091A2
:10109000E80082FFDDCF8091E80082FD0FC0913033
:1010A00049F48091E80080FFFCCF8091E8008E7FBA
:1010B0008093E8008091E80082FFFCCF8091E800F7
:1010C0008B7F8093E8008091E8008F7708C0809143
:1010D000EB0080628093EB008091E800877F809333
:1010E000E80027960FB6F894DEBF0FBECDBFCF91B4
:1010F000DF911F910F91FF90089581E08093E900A7
:1011000081EC60E30E942F0908959091F100E8EED0
:10111000F0E08081877F80839093920280818E7F30
:10112000808381E08093E90081EC60E30E942F09D5
:101130000E947B0108950F931F931091F10000917D
:10114000F10086E691E00E946C0A802F0E94B10AAD
:10115000812F0E94B10A0630D1F0073050F40130DF
:1011600079F10130C8F1033089F1053009F05BC035
:101170001DC0093001F10A3020F4083009F053C0D5
:101180000FC00A3089F10B3009F04DC047C0812FE4
:101190008058823008F047C0812F0E9494075DC0BC
:1011A000103809F040C00E94480757C01123D9F5F4
:1011B0000E946E0752C01123B1F50E9485084DC0F0
:1011C000123088F5812F0E94E40647C0123058F58E
:1011D000812F0E94F70541C0812F8058823018F579
:1011E000812F0E94380639C0113849F48091EB00F4
:1011F00080628093EB008091E800877F0CC0113201
:1012000011F0113A81F48091E800877F8093E80023
:101210008091E8008E7F8093E8001FC0113019F4A0
:101220000E9484061AC0812F602F0E94CE09882355
:1012300061F48091EB0080628093EB008091E80084
:10124000877F8093E80088E501C085E50E945D0AFC
:101250000E94920A1F910F91089583E5F7CF909114
:10126000EB0091609093EB008093EC008091ED0097
:101270008270862B8093ED008091ED0082608093D8
:10128000ED008091EE00881F8827881F08959091B7
:10129000F40080E090FD06C08F5F873011F09695D6
:1012A000F9CF80E00895FB018093E90004C08191AB
:1012B0008093F10041508091E80085FF02C04423F3
:1012C000B1F7842F0895FB018093E90004C0809159
:1012D000F100819341508091E80085FF02C04423D2
:1012E000B1F7842F08958093E900EBEEF0E0808160
:1012F0008062808308958091D8008F7B8093D8008E
:101300008091D90081FF0DC01092E9008091EB001F
:1013100080FD07C01092E90082E060E30E942F097F
:10132000089580E008958091E800877F8093E80029
:101330008091E8008E7F8093E8008091E80082FF32
:10134000FCCF8091E8008B7F8093E8008091E800DB
:101350008F778093E8008091E8008E7F8093E8008B
:1013600081E008958091F1008091F1008091F10079
:10137000809393028091F100809394028091E80021
:10138000877F8093E8008091E8008E7F8093E8005B
:101390008091E80080FFFCCF81E00895DF93CF9338
:1013A00000D000D0CDB7DEB72091F1009091F100D0
:1013B0003091F1003091F1004091F1003091F10055
:1013C0008295869583708130C9F429839A834B83F3
:1013D0003C83693051F06A3079F06130E9F4892F4B
:1013E000622F4B810E94690105C0892F622F4B81BA
:1013F0000E940E04882389F081E00FC0882361F4E5
:10140000693019F06A3041F404C0892F0E949309B1
:1014100004C00E94B20901C080E00F900F900F90AD
:101420000F90CF91DF91089580E090E060E00E94FE
:10143000930681E00E94C9062CE088E190E00FB697
:10144000F894A895809360000FBE2093600081E01F
:10145000089583E38093CC001092CD0088E18093BF
:10146000C9008EE08093CA0008958091C80085FF6E
:1014700019C09091950280919503981799F02FB714
:10148000F894E92FF0E0EA56FD4F808110828093B6
:10149000CE00892F8F5F809395028F3F11F41092B9
:1014A00095022FBF089502C00E94350A90919503BE
:1014B000809195029817C1F7089590919503E92FAF
:1014C000F0E0EA56FD4F80839F5F909395039F3F26
:1014D00011F4109295030895DC012DE09C9199235D
:1014E00001F19A3071F480919503E82FF0E0EA560B
:1014F000FD4F20838F5F809395038F3F11F41092EF
:10150000950380919503E82FF0E0EA56FD4F908314
:101510008F5F809395038F3F11F41092950311967E
:10152000DDCF089580919503E82FF0E0EA56FD4F56
:101530009DE090838F5F809395038F3F11F410920D
:10154000950380919503E82FF0E0EA56FD4F9AE06D
:1015500090838F5F809395038F3F11F410929503D2
:101560000895282F80919503E82FF0E0EA56FD4F6B
:1015700090E290838F5F809395038F3F11F41092D8
:10158000950380919503E82FF0E0EA56FD4F90E334
:1015900090838F5F809395038F3F11F41092950392
:1015A00080919503E82FF0E0EA56FD4F98E790838D
:1015B0008F5F809395038F3F11F410929503822FD4
:1015C00082958F708A3018F0982F995A02C0982F00
:1015D000905D80919503E82FF0E0EA56FD4F9083EF
:1015E0008F5F809395038F3F11F410929503822FA4
:1015F0008F708A3018F0982F995A02C0982F905DFA
:1016000080919503E82FF0E0EA56FD4F90838F5FBD
:10161000809395038F3F11F4109295038091950369
:10162000E82FF0E0EA56FD4F90E290838F5F8093C1
:1016300095038F3F11F41092950308953898409ABE
:101640000895409A389A08954098389A089538989D
:101650004098089586B1817008953898409808950B
:101660004098389A80EC93E00197F1F738984098C9
:1016700084E890E00197F1F786B1ECE3F3E031976D
:10168000F1F78095817008954098389AE2E0F0E093
:101690003197F1F7882311F038984098ECE1F0E0A9
:1016A0003197F1F7309B80E0EAE5F0E03197F1F710
:1016B0003898409808950F931F93182F00E0812FBA
:1016C00081700E94440B1695811110680F5F0830DD
:1016D000B1F7812F1F910F9108958FEF0E945B0B3F
:1016E00008950F931F93CF93DF938C010E94300BCB
:1016F000882391F0F89483E30E945B0BC0E0D0E074
:101700000E946D0BF801EC0FFD1F80832196C830FD
:10171000D105B1F7789488E0DF91CF911F910F91B7
:101720000895FF920F931F93CF93DF93182FF92EF5
:10173000062F0E94300B882311F400E01AC0F894A1
:101740008CEC0E945B0B80EF0E945B0B80E00E94A0
:101750005B0B80E00E945B0B812F9F2D9C01E901B8
:1017600010E004C00E946D0B89931F5F1017D0F327
:101770007894802FDF91CF911F910F91FF90089562
:10178000EF92FF920F931F93DF93CF93CDB7DEB706
:10179000A0970FB6F894DEBF0FBECDBFF82EE92E8E
:1017A000162F042F0E94300B882309F448C0F894A8
:1017B0008CEC0E945B0B8FE00E945B0B812F82956B
:1017C000880F807E0E945B0B80E00E945B0B8F2D58
:1017D0009E2D9C01790110E006C0F70181917F01E7
:1017E0000E945B0B1F5F1017C0F30E94300B882311
:1017F00031F18CEC0E945B0B8AEA0E945B0B0E9429
:101800006D0B89830E946D0B8A830E946D0B182FCC
:101810008B830E94300B882391F08CEC0E945B0B31
:1018200085E50E945B0B89810E945B0B8A810E9487
:101830005B0B812F0E945B0B78948C8101C080E050
:10184000A0960FB6F894DEBF0FBECDBFCF91DF914B
:0E1850001F910F91FF90EF900895F894FFCF35
:10185E00414443500A00504B4F46210A0050575204
:10186E004F4E0A005644210A0053504949444C45F4
:10187E000A004150004E4F20544544532852290A25
:10188E00004E4F2054454453284D290A00544544D8
:10189E005320524541440A001F001F001F00200024
:1018AE000419FFFF5F345F005F315F004144445213
:0C18BE0000534744200053544420000015
:00000001FF
